:1000000009C016C015C014C013C012C011C010C062
:100010000FC00EC011241FBECFE9CDBF10E0A0E677
:10002000B0E001C01D92A236B107E1F7F6D0B6C12B
:10003000E7CFCF93DF93DC0140E050E060EF70E06A
:1000400013C0FB013197F1F721503040D1F74F5FDA
:100050005F4F4430510541F440E050E0C0EADCE835
:1000600094E060EF70E014C024EF31E0EACFC29A70
:10007000FE013197F1F788B3892788BB22EC31E084
:10008000FB013197F1F721503040D1F74F5F5F4FBF
:100090004A175B0764F320E030E040EF50E00AC00D
:1000A000FA013197F1F70197D9F72F5F3F4F2430CD
:1000B000310519F084EF91E0F3CFDF91CF910895EE
:1000C0000F931F93CF93DF9340E060EF70E00EC07B
:1000D000FB013197F1F721503040D1F74F5F4430A9
:1000E00029F427E030E0A82FB0E009C024EF31E088
:1000F000EFCF215030408FEF2F3F380769F0CD010F
:10010000022E02C0959587950A94E2F780FFF1CF01
:10011000233014F0622F01C063E020E030E0C62FEE
:10012000DD27C7FDD09500EC1DE540EF50E0C29AF9
:10013000CE01821B930BFD0102C0F595E7958A95D0
:10014000E2F7E0FF09C088E592E0FA013197F1F7A4
:100150000197D9F7C2980BC0C8010197F1F7C2986F
:1001600084EF91E0FA013197F1F70197D9F780E92F
:1001700091E0FA013197F1F70197D9F72F5F3F4FDF
:10018000862F821B87FFD3CF20E040EF50E008C0CE
:10019000FA013197F1F70197D9F72F5F243019F061
:1001A00084EF91E0F5CFDF91CF911F910F910895EA
:1001B00020E030E050E105C0452F4A95F1F72F5F70
:1001C0003F4F28173907C4F308951F93182F78DF7E
:1001D000123011F491E009C0143011F492E005C01E
:1001E000133011F493E001C090E087B18062892B55
:1001F00087B987B1803218F087B1843208F0CAD04D
:1002000087B15EDF379A369A3699FECF369A36999D
:10021000FECF379885B11F9108950F931F93CF9309
:10022000DF93BA9AB99ABC98BB9886B1836886B9AD
:1002300080E046DF84E044DF8FE042DF83E040DFA0
:1002400000E1CFEFD0E083E0C0DF8093610088233E
:1002500011F0C29AC19A482F50E020E030E005C06A
:10026000902F9A95F1F72F5F3F4F24173507C4F36E
:1002700084E0ABDF182F80936000682F70E0882740
:1002800077FD8095982F23D026E636E646E653E4A0
:1002900059D018162CF4812F82958695877010DF1F
:1002A000809161008F3F11F0C298C198AE01481B48
:1002B000510980E090E004C0202F2A95F1F70196C3
:1002C000841795070CF0BFCFF7CFE89409C097FBD0
:1002D0003EF490958095709561957F4F8F4F9F4F1D
:1002E0009923A9F0F92F96E9BB279395F695879561
:1002F00077956795B795F111F8CFFAF4BB0F11F424
:1003000060FF1BC06F5F7F4F8F4F9F4F16C08823CA
:1003100011F096E911C0772321F09EE8872F762F00
:1003200005C0662371F096E8862F70E060E02AF041
:100330009A95660F771F881FDAF7880F969587952D
:1003400097F9089503D008F48FEF0895990F0008E6
:10035000550FAA0BE0E8FEEF16161706E807F90797
:10036000C0F012161306E407F50798F0621B730B32
:10037000840B950B39F40A2661F0232B242B252BB3
:1003800021F408950A2609F4A140A6958FEF811D56
:10039000811D089581E090E0F89400C0F894FFCFAB
:00000001FF
